{"contracts/NFTMarketPlace.sol":{"NFTMarketplace":{"abi":[{"inputs":[],"stateMutability":"nonpayable","type":"constructor"},{"anonymous":false,"inputs":[{"indexed":true,"internalType":"address","name":"by","type":"address"},{"indexed":false,"internalType":"address","name":"NFTAddress","type":"address"},{"indexed":true,"internalType":"uint256","name":"NFTId","type":"uint256"},{"indexed":true,"internalType":"uint256","name":"listingId","type":"uint256"},{"indexed":false,"internalType":"uint256","name":"demandedAmount","type":"uint256"},{"indexed":false,"internalType":"uint256","name":"at","type":"uint256"}],"name":"Listed","type":"event"},{"anonymous":false,"inputs":[{"indexed":true,"internalType":"address","name":"by","type":"address"},{"indexed":true,"internalType":"address","name":"to","type":"address"},{"indexed":true,"internalType":"uint256","name":"NFTId","type":"uint256"},{"indexed":false,"internalType":"uint256","name":"listingId","type":"uint256"},{"indexed":false,"internalType":"uint256","name":"soldPrice","type":"uint256"},{"indexed":false,"internalType":"uint256","name":"at","type":"uint256"}],"name":"SoldViaListing","type":"event"},{"anonymous":false,"inputs":[{"indexed":true,"internalType":"uint256","name":"tokenId","type":"uint256"}],"name":"mintToken","type":"event"},{"inputs":[{"internalType":"uint256","name":"listingId","type":"uint256"}],"name":"_listingData","outputs":[{"components":[{"internalType":"address","name":"owner","type":"address"},{"internalType":"address","name":"NFTAddress","type":"address"},{"internalType":"uint256","name":"NFTId","type":"uint256"},{"internalType":"uint256","name":"demandedAmount","type":"uint256"},{"internalType":"address","name":"soldTo","type":"address"}],"internalType":"struct NFTMarketplace.Listing","name":"","type":"tuple"}],"stateMutability":"view","type":"function"},{"inputs":[],"name":"_listingTransactionFee","outputs":[{"internalType":"uint256","name":"","type":"uint256"}],"stateMutability":"view","type":"function"},{"inputs":[],"name":"_totalListings","outputs":[{"internalType":"uint256","name":"","type":"uint256"}],"stateMutability":"view","type":"function"},{"inputs":[{"internalType":"address","name":"userAddress","type":"address"}],"name":"_usersListings","outputs":[{"internalType":"uint256[]","name":"","type":"uint256[]"}],"stateMutability":"view","type":"function"},{"inputs":[{"internalType":"uint256","name":"listingId","type":"uint256"}],"name":"buyListedNFT","outputs":[],"stateMutability":"payable","type":"function"},{"inputs":[{"internalType":"address","name":"_contract","type":"address"}],"name":"checkRoyalties","outputs":[{"internalType":"bool","name":"","type":"bool"}],"stateMutability":"view","type":"function"},{"inputs":[{"internalType":"address","name":"_NFTAddress","type":"address"},{"internalType":"uint256","name":"_NFTId","type":"uint256"},{"internalType":"uint256","name":"_demandedAmount","type":"uint256"}],"name":"listNFT","outputs":[],"stateMutability":"payable","type":"function"},{"inputs":[{"internalType":"address","name":"operator","type":"address"},{"internalType":"address","name":"from","type":"address"},{"internalType":"uint256","name":"tokenId","type":"uint256"},{"internalType":"bytes","name":"data","type":"bytes"}],"name":"onERC721Received","outputs":[{"internalType":"bytes4","name":"","type":"bytes4"}],"stateMutability":"pure","type":"function"},{"inputs":[{"internalType":"uint256","name":"_listingPrice","type":"uint256"}],"name":"updateListingFee","outputs":[],"stateMutability":"nonpayable","type":"function"}],"evm":{"bytecode":{"linkReferences":{},"object":"608060405265e35fa931a00060015534801561001a57600080fd5b50600080546001600160a01b031916331790556111e78061003c6000396000f3fe6080604052600436106100965760003560e01c8063ad05f1b411610069578063e2acb8a01161004e578063e2acb8a0146101a2578063e605722e1461021a578063f79d91ae1461024757600080fd5b8063ad05f1b41461015f578063c0a515871461017257600080fd5b8063150b7a021461009b5780631ee826cd14610116578063595f68b514610135578063a3413e0a1461014a575b600080fd5b3480156100a757600080fd5b506100e06100b6366004610f77565b7f150b7a023d4804d13e8c85fb27262cb750cf6ba9f9dd3bb30d90f482ceeb4b1f95945050505050565b6040517fffffffff0000000000000000000000000000000000000000000000000000000090911681526020015b60405180910390f35b34801561012257600080fd5b506002545b60405190815260200161010d565b610148610143366004611016565b610267565b005b34801561015657600080fd5b50600154610127565b61014861016d36600461102f565b610794565b34801561017e57600080fd5b5061019261018d366004611064565b610c56565b604051901515815260200161010d565b3480156101ae57600080fd5b506101c26101bd366004611016565b610d1f565b60405161010d9190815173ffffffffffffffffffffffffffffffffffffffff90811682526020808401518216908301526040808401519083015260608084015190830152608092830151169181019190915260a00190565b34801561022657600080fd5b5061023a610235366004611064565b610e2d565b60405161010d9190611081565b34801561025357600080fd5b50610148610262366004611016565b610ea6565b8060008111801561027a57506002548111155b6102e5576040517f08c379a000000000000000000000000000000000000000000000000000000000815260206004820152601260248201527f496e76616c6964204c697374696e67204964000000000000000000000000000060448201526064015b60405180910390fd5b600082815260036020818152604092839020835160a081018552815473ffffffffffffffffffffffffffffffffffffffff908116825260018301548116938201939093526002820154948101949094529182015460608401526004909101541660808201819052156103d9576040517f08c379a000000000000000000000000000000000000000000000000000000000815260206004820152603260248201527f596f752043616e6e6f74204275792054686973204e465420426563617573652060448201527f497420497320416c726561647920536f6c64000000000000000000000000000060648201526084016102dc565b806060015134101561046d576040517f08c379a000000000000000000000000000000000000000000000000000000000815260206004820152602a60248201527f53656e642056616c7565204d6f7265204f7220457175616c20546f2044656d6160448201527f6e6465642056616c75650000000000000000000000000000000000000000000060648201526084016102dc565b602081015160408201516000918291828061048784610c56565b905080156105e45760608701516040517f2a55205a00000000000000000000000000000000000000000000000000000000815273ffffffffffffffffffffffffffffffffffffffff861691632a55205a916104ef918791600401918252602082015260400190565b604080518083038186803b15801561050657600080fd5b505afa15801561051a573d6000803e3d6000fd5b505050506040513d601f19601f8201168201806040525081019061053e91906110c5565b604051919750955073ffffffffffffffffffffffffffffffffffffffff87169086156108fc029087906000818181858888f19350505050158015610586573d6000803e3d6000fd5b508487606001516105979190611122565b875160405191935073ffffffffffffffffffffffffffffffffffffffff169083156108fc029084906000818181858888f193505050501580156105de573d6000803e3d6000fd5b50610632565b6060870151875160405191935073ffffffffffffffffffffffffffffffffffffffff169083156108fc029084906000818181858888f19350505050158015610630573d6000803e3d6000fd5b505b60008981526003602052604090819020600490810180547fffffffffffffffffffffffff000000000000000000000000000000000000000016339081179091558983015192517f42842e0e000000000000000000000000000000000000000000000000000000008152309281019290925260248201819052604482019290925273ffffffffffffffffffffffffffffffffffffffff8616906342842e0e90606401600060405180830381600087803b1580156106ed57600080fd5b505af1158015610701573d6000803e3d6000fd5b5050505087604001518173ffffffffffffffffffffffffffffffffffffffff16896000015173ffffffffffffffffffffffffffffffffffffffff167f2cd4b36abe053379eb9384c811c41e8e863e269b5444e1f88409821d4d15c3898d8742604051610780939291909283526020830191909152604082015260600190565b60405180910390a450505050505050505050565b60015434146107ff576040517f08c379a000000000000000000000000000000000000000000000000000000000815260206004820152601f60248201527f596f752073686f756c642070617920746865206c697374696e67206665652e0060448201526064016102dc565b6040517f081812fc000000000000000000000000000000000000000000000000000000008152600481018390523390309073ffffffffffffffffffffffffffffffffffffffff86169063081812fc9060240160206040518083038186803b15801561086957600080fd5b505afa15801561087d573d6000803e3d6000fd5b505050506040513d601f19601f820116820180604052508101906108a19190611139565b73ffffffffffffffffffffffffffffffffffffffff1614610944576040517f08c379a000000000000000000000000000000000000000000000000000000000815260206004820152602e60248201527f596f7520446964204e6f7420417070726f76656420596f7572204e465420546f60448201527f205468697320436f6e747261637400000000000000000000000000000000000060648201526084016102dc565b6040517f6352211e0000000000000000000000000000000000000000000000000000000081526004810184905273ffffffffffffffffffffffffffffffffffffffff8083169190861690636352211e9060240160206040518083038186803b1580156109af57600080fd5b505afa1580156109c3573d6000803e3d6000fd5b505050506040513d601f19601f820116820180604052508101906109e79190611139565b73ffffffffffffffffffffffffffffffffffffffff1614610a8a576040517f08c379a000000000000000000000000000000000000000000000000000000000815260206004820152602860248201527f4f6e6c79204f776e6572204f662054686973204e46542043616e204c6973742060448201527f54686973204e465400000000000000000000000000000000000000000000000060648201526084016102dc565b6040517f42842e0e00000000000000000000000000000000000000000000000000000000815273ffffffffffffffffffffffffffffffffffffffff8281166004830152306024830152604482018590528516906342842e0e90606401600060405180830381600087803b158015610b0057600080fd5b505af1158015610b14573d6000803e3d6000fd5b505060028054925090506000610b2983611156565b9091555050600280546040805160a08101825273ffffffffffffffffffffffffffffffffffffffff85811680835289821660208085018281528587018c815260608088018d8152600060808a018181528c825260038088528c83209b518c54908c167fffffffffffffffffffffffff0000000000000000000000000000000000000000918216178d5596516001808e018054928e16928a169290921790915595519e8c019e909e5591519c8a019c909c5551600498890180549190981693169290921790955583895294815285882080549485018155885296879020909201859055835191825294810187905242928101929092529192839287927faf479ebb9688734e395ae86aa7ce9354466240d8fbc4411946de41bd9bfaebf6910160405180910390a45050505050565b6040517f01ffc9a70000000000000000000000000000000000000000000000000000000081527f2a55205a000000000000000000000000000000000000000000000000000000006004820152600090819073ffffffffffffffffffffffffffffffffffffffff8416906301ffc9a79060240160206040518083038186803b158015610ce057600080fd5b505afa158015610cf4573d6000803e3d6000fd5b505050506040513d601f19601f82011682018060405250810190610d18919061118f565b9392505050565b6040805160a08101825260008082526020820181905291810182905260608101829052608081019190915281600081118015610d5d57506002548111155b610dc3576040517f08c379a000000000000000000000000000000000000000000000000000000000815260206004820152601260248201527f496e76616c6964204c697374696e67204964000000000000000000000000000060448201526064016102dc565b5050600090815260036020818152604092839020835160a081018552815473ffffffffffffffffffffffffffffffffffffffff9081168252600183015481169382019390935260028201549481019490945291820154606084015260049091015416608082015290565b73ffffffffffffffffffffffffffffffffffffffff8116600090815260046020908152604091829020805483518184028101840190945280845260609392830182828015610e9a57602002820191906000526020600020905b815481526020019060010190808311610e86575b50505050509050919050565b60005473ffffffffffffffffffffffffffffffffffffffff163314610f4d576040517f08c379a000000000000000000000000000000000000000000000000000000000815260206004820152603060248201527f4f6e6c79206d61726b6574706c616365206f776e65722063616e20757064617460448201527f65206c697374696e672070726963652e0000000000000000000000000000000060648201526084016102dc565b600155565b73ffffffffffffffffffffffffffffffffffffffff81168114610f7457600080fd5b50565b600080600080600060808688031215610f8f57600080fd5b8535610f9a81610f52565b94506020860135610faa81610f52565b935060408601359250606086013567ffffffffffffffff80821115610fce57600080fd5b818801915088601f830112610fe257600080fd5b813581811115610ff157600080fd5b89602082850101111561100357600080fd5b9699959850939650602001949392505050565b60006020828403121561102857600080fd5b5035919050565b60008060006060848603121561104457600080fd5b833561104f81610f52565b95602085013595506040909401359392505050565b60006020828403121561107657600080fd5b8135610d1881610f52565b6020808252825182820181905260009190848201906040850190845b818110156110b95783518352928401929184019160010161109d565b50909695505050505050565b600080604083850312156110d857600080fd5b82516110e381610f52565b6020939093015192949293505050565b7f4e487b7100000000000000000000000000000000000000000000000000000000600052601160045260246000fd5b600082821015611134576111346110f3565b500390565b60006020828403121561114b57600080fd5b8151610d1881610f52565b60007fffffffffffffffffffffffffffffffffffffffffffffffffffffffffffffffff821415611188576111886110f3565b5060010190565b6000602082840312156111a157600080fd5b81518015158114610d1857600080fdfea2646970667358221220f06f5f2a0c60b7ee7c7e3c8cae581dda74c87c558c6f921ee674c7ebcdfea5b064736f6c63430008090033","opcodes":"PUSH1 0x80 PUSH1 0x40 MSTORE PUSH6 0xE35FA931A000 PUSH1 0x1 SSTORE CALLVALUE DUP1 ISZERO PUSH2 0x1A JUMPI PUSH1 0x0 DUP1 REVERT JUMPDEST POP PUSH1 0x0 DUP1 SLOAD PUSH1 0x1 PUSH1 0x1 PUSH1 0xA0 SHL SUB NOT AND CALLER OR SWAP1 SSTORE PUSH2 0x11E7 DUP1 PUSH2 0x3C PUSH1 0x0 CODECOPY PUSH1 0x0 RETURN INVALID PUSH1 0x80 PUSH1 0x40 MSTORE PUSH1 0x4 CALLDATASIZE LT PUSH2 0x96 JUMPI PUSH1 0x0 CALLDATALOAD PUSH1 0xE0 SHR DUP1 PUSH4 0xAD05F1B4 GT PUSH2 0x69 JUMPI DUP1 PUSH4 0xE2ACB8A0 GT PUSH2 0x4E JUMPI DUP1 PUSH4 0xE2ACB8A0 EQ PUSH2 0x1A2 JUMPI DUP1 PUSH4 0xE605722E EQ PUSH2 0x21A JUMPI DUP1 PUSH4 0xF79D91AE EQ PUSH2 0x247 JUMPI PUSH1 0x0 DUP1 REVERT JUMPDEST DUP1 PUSH4 0xAD05F1B4 EQ PUSH2 0x15F JUMPI DUP1 PUSH4 0xC0A51587 EQ PUSH2 0x172 JUMPI PUSH1 0x0 DUP1 REVERT JUMPDEST DUP1 PUSH4 0x150B7A02 EQ PUSH2 0x9B JUMPI DUP1 PUSH4 0x1EE826CD EQ PUSH2 0x116 JUMPI DUP1 PUSH4 0x595F68B5 EQ PUSH2 0x135 JUMPI DUP1 PUSH4 0xA3413E0A EQ PUSH2 0x14A JUMPI JUMPDEST PUSH1 0x0 DUP1 REVERT JUMPDEST CALLVALUE DUP1 ISZERO PUSH2 0xA7 JUMPI PUSH1 0x0 DUP1 REVERT JUMPDEST POP PUSH2 0xE0 PUSH2 0xB6 CALLDATASIZE PUSH1 0x4 PUSH2 0xF77 JUMP JUMPDEST PUSH32 0x150B7A023D4804D13E8C85FB27262CB750CF6BA9F9DD3BB30D90F482CEEB4B1F SWAP6 SWAP5 POP POP POP POP POP JUMP JUMPDEST PUSH1 0x40 MLOAD PUSH32 0xFFFFFFFF00000000000000000000000000000000000000000000000000000000 SWAP1 SWAP2 AND DUP2 MSTORE PUSH1 0x20 ADD JUMPDEST PUSH1 0x40 MLOAD DUP1 SWAP2 SUB SWAP1 RETURN JUMPDEST CALLVALUE DUP1 ISZERO PUSH2 0x122 JUMPI PUSH1 0x0 DUP1 REVERT JUMPDEST POP PUSH1 0x2 SLOAD JUMPDEST PUSH1 0x40 MLOAD SWAP1 DUP2 MSTORE PUSH1 0x20 ADD PUSH2 0x10D JUMP JUMPDEST PUSH2 0x148 PUSH2 0x143 CALLDATASIZE PUSH1 0x4 PUSH2 0x1016 JUMP JUMPDEST PUSH2 0x267 JUMP JUMPDEST STOP JUMPDEST CALLVALUE DUP1 ISZERO PUSH2 0x156 JUMPI PUSH1 0x0 DUP1 REVERT JUMPDEST POP PUSH1 0x1 SLOAD PUSH2 0x127 JUMP JUMPDEST PUSH2 0x148 PUSH2 0x16D CALLDATASIZE PUSH1 0x4 PUSH2 0x102F JUMP JUMPDEST PUSH2 0x794 JUMP JUMPDEST CALLVALUE DUP1 ISZERO PUSH2 0x17E JUMPI PUSH1 0x0 DUP1 REVERT JUMPDEST POP PUSH2 0x192 PUSH2 0x18D CALLDATASIZE PUSH1 0x4 PUSH2 0x1064 JUMP JUMPDEST PUSH2 0xC56 JUMP JUMPDEST PUSH1 0x40 MLOAD SWAP1 ISZERO ISZERO DUP2 MSTORE PUSH1 0x20 ADD PUSH2 0x10D JUMP JUMPDEST CALLVALUE DUP1 ISZERO PUSH2 0x1AE JUMPI PUSH1 0x0 DUP1 REVERT JUMPDEST POP PUSH2 0x1C2 PUSH2 0x1BD CALLDATASIZE PUSH1 0x4 PUSH2 0x1016 JUMP JUMPDEST PUSH2 0xD1F JUMP JUMPDEST PUSH1 0x40 MLOAD PUSH2 0x10D SWAP2 SWAP1 DUP2 MLOAD PUSH20 0xFFFFFFFFFFFFFFFFFFFFFFFFFFFFFFFFFFFFFFFF SWAP1 DUP2 AND DUP3 MSTORE PUSH1 0x20 DUP1 DUP5 ADD MLOAD DUP3 AND SWAP1 DUP4 ADD MSTORE PUSH1 0x40 DUP1 DUP5 ADD MLOAD SWAP1 DUP4 ADD MSTORE PUSH1 0x60 DUP1 DUP5 ADD MLOAD SWAP1 DUP4 ADD MSTORE PUSH1 0x80 SWAP3 DUP4 ADD MLOAD AND SWAP2 DUP2 ADD SWAP2 SWAP1 SWAP2 MSTORE PUSH1 0xA0 ADD SWAP1 JUMP JUMPDEST CALLVALUE DUP1 ISZERO PUSH2 0x226 JUMPI PUSH1 0x0 DUP1 REVERT JUMPDEST POP PUSH2 0x23A PUSH2 0x235 CALLDATASIZE PUSH1 0x4 PUSH2 0x1064 JUMP JUMPDEST PUSH2 0xE2D JUMP JUMPDEST PUSH1 0x40 MLOAD PUSH2 0x10D SWAP2 SWAP1 PUSH2 0x1081 JUMP JUMPDEST CALLVALUE DUP1 ISZERO PUSH2 0x253 JUMPI PUSH1 0x0 DUP1 REVERT JUMPDEST POP PUSH2 0x148 PUSH2 0x262 CALLDATASIZE PUSH1 0x4 PUSH2 0x1016 JUMP JUMPDEST PUSH2 0xEA6 JUMP JUMPDEST DUP1 PUSH1 0x0 DUP2 GT DUP1 ISZERO PUSH2 0x27A JUMPI POP PUSH1 0x2 SLOAD DUP2 GT ISZERO JUMPDEST PUSH2 0x2E5 JUMPI PUSH1 0x40 MLOAD PUSH32 0x8C379A000000000000000000000000000000000000000000000000000000000 DUP2 MSTORE PUSH1 0x20 PUSH1 0x4 DUP3 ADD MSTORE PUSH1 0x12 PUSH1 0x24 DUP3 ADD MSTORE PUSH32 0x496E76616C6964204C697374696E672049640000000000000000000000000000 PUSH1 0x44 DUP3 ADD MSTORE PUSH1 0x64 ADD JUMPDEST PUSH1 0x40 MLOAD DUP1 SWAP2 SUB SWAP1 REVERT JUMPDEST PUSH1 0x0 DUP3 DUP2 MSTORE PUSH1 0x3 PUSH1 0x20 DUP2 DUP2 MSTORE PUSH1 0x40 SWAP3 DUP4 SWAP1 KECCAK256 DUP4 MLOAD PUSH1 0xA0 DUP2 ADD DUP6 MSTORE DUP2 SLOAD PUSH20 0xFFFFFFFFFFFFFFFFFFFFFFFFFFFFFFFFFFFFFFFF SWAP1 DUP2 AND DUP3 MSTORE PUSH1 0x1 DUP4 ADD SLOAD DUP2 AND SWAP4 DUP3 ADD SWAP4 SWAP1 SWAP4 MSTORE PUSH1 0x2 DUP3 ADD SLOAD SWAP5 DUP2 ADD SWAP5 SWAP1 SWAP5 MSTORE SWAP2 DUP3 ADD SLOAD PUSH1 0x60 DUP5 ADD MSTORE PUSH1 0x4 SWAP1 SWAP2 ADD SLOAD AND PUSH1 0x80 DUP3 ADD DUP2 SWAP1 MSTORE ISZERO PUSH2 0x3D9 JUMPI PUSH1 0x40 MLOAD PUSH32 0x8C379A000000000000000000000000000000000000000000000000000000000 DUP2 MSTORE PUSH1 0x20 PUSH1 0x4 DUP3 ADD MSTORE PUSH1 0x32 PUSH1 0x24 DUP3 ADD MSTORE PUSH32 0x596F752043616E6E6F74204275792054686973204E4654204265636175736520 PUSH1 0x44 DUP3 ADD MSTORE PUSH32 0x497420497320416C726561647920536F6C640000000000000000000000000000 PUSH1 0x64 DUP3 ADD MSTORE PUSH1 0x84 ADD PUSH2 0x2DC JUMP JUMPDEST DUP1 PUSH1 0x60 ADD MLOAD CALLVALUE LT ISZERO PUSH2 0x46D JUMPI PUSH1 0x40 MLOAD PUSH32 0x8C379A000000000000000000000000000000000000000000000000000000000 DUP2 MSTORE PUSH1 0x20 PUSH1 0x4 DUP3 ADD MSTORE PUSH1 0x2A PUSH1 0x24 DUP3 ADD MSTORE PUSH32 0x53656E642056616C7565204D6F7265204F7220457175616C20546F2044656D61 PUSH1 0x44 DUP3 ADD MSTORE PUSH32 0x6E6465642056616C756500000000000000000000000000000000000000000000 PUSH1 0x64 DUP3 ADD MSTORE PUSH1 0x84 ADD PUSH2 0x2DC JUMP JUMPDEST PUSH1 0x20 DUP2 ADD MLOAD PUSH1 0x40 DUP3 ADD MLOAD PUSH1 0x0 SWAP2 DUP3 SWAP2 DUP3 DUP1 PUSH2 0x487 DUP5 PUSH2 0xC56 JUMP JUMPDEST SWAP1 POP DUP1 ISZERO PUSH2 0x5E4 JUMPI PUSH1 0x60 DUP8 ADD MLOAD PUSH1 0x40 MLOAD PUSH32 0x2A55205A00000000000000000000000000000000000000000000000000000000 DUP2 MSTORE PUSH20 0xFFFFFFFFFFFFFFFFFFFFFFFFFFFFFFFFFFFFFFFF DUP7 AND SWAP2 PUSH4 0x2A55205A SWAP2 PUSH2 0x4EF SWAP2 DUP8 SWAP2 PUSH1 0x4 ADD SWAP2 DUP3 MSTORE PUSH1 0x20 DUP3 ADD MSTORE PUSH1 0x40 ADD SWAP1 JUMP JUMPDEST PUSH1 0x40 DUP1 MLOAD DUP1 DUP4 SUB DUP2 DUP7 DUP1 EXTCODESIZE ISZERO DUP1 ISZERO PUSH2 0x506 JUMPI PUSH1 0x0 DUP1 REVERT JUMPDEST POP GAS STATICCALL ISZERO DUP1 ISZERO PUSH2 0x51A JUMPI RETURNDATASIZE PUSH1 0x0 DUP1 RETURNDATACOPY RETURNDATASIZE PUSH1 0x0 REVERT JUMPDEST POP POP POP POP PUSH1 0x40 MLOAD RETURNDATASIZE PUSH1 0x1F NOT PUSH1 0x1F DUP3 ADD AND DUP3 ADD DUP1 PUSH1 0x40 MSTORE POP DUP2 ADD SWAP1 PUSH2 0x53E SWAP2 SWAP1 PUSH2 0x10C5 JUMP JUMPDEST PUSH1 0x40 MLOAD SWAP2 SWAP8 POP SWAP6 POP PUSH20 0xFFFFFFFFFFFFFFFFFFFFFFFFFFFFFFFFFFFFFFFF DUP8 AND SWAP1 DUP7 ISZERO PUSH2 0x8FC MUL SWAP1 DUP8 SWAP1 PUSH1 0x0 DUP2 DUP2 DUP2 DUP6 DUP9 DUP9 CALL SWAP4 POP POP POP POP ISZERO DUP1 ISZERO PUSH2 0x586 JUMPI RETURNDATASIZE PUSH1 0x0 DUP1 RETURNDATACOPY RETURNDATASIZE PUSH1 0x0 REVERT JUMPDEST POP DUP5 DUP8 PUSH1 0x60 ADD MLOAD PUSH2 0x597 SWAP2 SWAP1 PUSH2 0x1122 JUMP JUMPDEST DUP8 MLOAD PUSH1 0x40 MLOAD SWAP2 SWAP4 POP PUSH20 0xFFFFFFFFFFFFFFFFFFFFFFFFFFFFFFFFFFFFFFFF AND SWAP1 DUP4 ISZERO PUSH2 0x8FC MUL SWAP1 DUP5 SWAP1 PUSH1 0x0 DUP2 DUP2 DUP2 DUP6 DUP9 DUP9 CALL SWAP4 POP POP POP POP ISZERO DUP1 ISZERO PUSH2 0x5DE JUMPI RETURNDATASIZE PUSH1 0x0 DUP1 RETURNDATACOPY RETURNDATASIZE PUSH1 0x0 REVERT JUMPDEST POP PUSH2 0x632 JUMP JUMPDEST PUSH1 0x60 DUP8 ADD MLOAD DUP8 MLOAD PUSH1 0x40 MLOAD SWAP2 SWAP4 POP PUSH20 0xFFFFFFFFFFFFFFFFFFFFFFFFFFFFFFFFFFFFFFFF AND SWAP1 DUP4 ISZERO PUSH2 0x8FC MUL SWAP1 DUP5 SWAP1 PUSH1 0x0 DUP2 DUP2 DUP2 DUP6 DUP9 DUP9 CALL SWAP4 POP POP POP POP ISZERO DUP1 ISZERO PUSH2 0x630 JUMPI RETURNDATASIZE PUSH1 0x0 DUP1 RETURNDATACOPY RETURNDATASIZE PUSH1 0x0 REVERT JUMPDEST POP JUMPDEST PUSH1 0x0 DUP10 DUP2 MSTORE PUSH1 0x3 PUSH1 0x20 MSTORE PUSH1 0x40 SWAP1 DUP2 SWAP1 KECCAK256 PUSH1 0x4 SWAP1 DUP2 ADD DUP1 SLOAD PUSH32 0xFFFFFFFFFFFFFFFFFFFFFFFF0000000000000000000000000000000000000000 AND CALLER SWAP1 DUP2 OR SWAP1 SWAP2 SSTORE DUP10 DUP4 ADD MLOAD SWAP3 MLOAD PUSH32 0x42842E0E00000000000000000000000000000000000000000000000000000000 DUP2 MSTORE ADDRESS SWAP3 DUP2 ADD SWAP3 SWAP1 SWAP3 MSTORE PUSH1 0x24 DUP3 ADD DUP2 SWAP1 MSTORE PUSH1 0x44 DUP3 ADD SWAP3 SWAP1 SWAP3 MSTORE PUSH20 0xFFFFFFFFFFFFFFFFFFFFFFFFFFFFFFFFFFFFFFFF DUP7 AND SWAP1 PUSH4 0x42842E0E SWAP1 PUSH1 0x64 ADD PUSH1 0x0 PUSH1 0x40 MLOAD DUP1 DUP4 SUB DUP2 PUSH1 0x0 DUP8 DUP1 EXTCODESIZE ISZERO DUP1 ISZERO PUSH2 0x6ED JUMPI PUSH1 0x0 DUP1 REVERT JUMPDEST POP GAS CALL ISZERO DUP1 ISZERO PUSH2 0x701 JUMPI RETURNDATASIZE PUSH1 0x0 DUP1 RETURNDATACOPY RETURNDATASIZE PUSH1 0x0 REVERT JUMPDEST POP POP POP POP DUP8 PUSH1 0x40 ADD MLOAD DUP2 PUSH20 0xFFFFFFFFFFFFFFFFFFFFFFFFFFFFFFFFFFFFFFFF AND DUP10 PUSH1 0x0 ADD MLOAD PUSH20 0xFFFFFFFFFFFFFFFFFFFFFFFFFFFFFFFFFFFFFFFF AND PUSH32 0x2CD4B36ABE053379EB9384C811C41E8E863E269B5444E1F88409821D4D15C389 DUP14 DUP8 TIMESTAMP PUSH1 0x40 MLOAD PUSH2 0x780 SWAP4 SWAP3 SWAP2 SWAP1 SWAP3 DUP4 MSTORE PUSH1 0x20 DUP4 ADD SWAP2 SWAP1 SWAP2 MSTORE PUSH1 0x40 DUP3 ADD MSTORE PUSH1 0x60 ADD SWAP1 JUMP JUMPDEST PUSH1 0x40 MLOAD DUP1 SWAP2 SUB SWAP1 LOG4 POP POP POP POP POP POP POP POP POP POP JUMP JUMPDEST PUSH1 0x1 SLOAD CALLVALUE EQ PUSH2 0x7FF JUMPI PUSH1 0x40 MLOAD PUSH32 0x8C379A000000000000000000000000000000000000000000000000000000000 DUP2 MSTORE PUSH1 0x20 PUSH1 0x4 DUP3 ADD MSTORE PUSH1 0x1F PUSH1 0x24 DUP3 ADD MSTORE PUSH32 0x596F752073686F756C642070617920746865206C697374696E67206665652E00 PUSH1 0x44 DUP3 ADD MSTORE PUSH1 0x64 ADD PUSH2 0x2DC JUMP JUMPDEST PUSH1 0x40 MLOAD PUSH32 0x81812FC00000000000000000000000000000000000000000000000000000000 DUP2 MSTORE PUSH1 0x4 DUP2 ADD DUP4 SWAP1 MSTORE CALLER SWAP1 ADDRESS SWAP1 PUSH20 0xFFFFFFFFFFFFFFFFFFFFFFFFFFFFFFFFFFFFFFFF DUP7 AND SWAP1 PUSH4 0x81812FC SWAP1 PUSH1 0x24 ADD PUSH1 0x20 PUSH1 0x40 MLOAD DUP1 DUP4 SUB DUP2 DUP7 DUP1 EXTCODESIZE ISZERO DUP1 ISZERO PUSH2 0x869 JUMPI PUSH1 0x0 DUP1 REVERT JUMPDEST POP GAS STATICCALL ISZERO DUP1 ISZERO PUSH2 0x87D JUMPI RETURNDATASIZE PUSH1 0x0 DUP1 RETURNDATACOPY RETURNDATASIZE PUSH1 0x0 REVERT JUMPDEST POP POP POP POP PUSH1 0x40 MLOAD RETURNDATASIZE PUSH1 0x1F NOT PUSH1 0x1F DUP3 ADD AND DUP3 ADD DUP1 PUSH1 0x40 MSTORE POP DUP2 ADD SWAP1 PUSH2 0x8A1 SWAP2 SWAP1 PUSH2 0x1139 JUMP JUMPDEST PUSH20 0xFFFFFFFFFFFFFFFFFFFFFFFFFFFFFFFFFFFFFFFF AND EQ PUSH2 0x944 JUMPI PUSH1 0x40 MLOAD PUSH32 0x8C379A000000000000000000000000000000000000000000000000000000000 DUP2 MSTORE PUSH1 0x20 PUSH1 0x4 DUP3 ADD MSTORE PUSH1 0x2E PUSH1 0x24 DUP3 ADD MSTORE PUSH32 0x596F7520446964204E6F7420417070726F76656420596F7572204E465420546F PUSH1 0x44 DUP3 ADD MSTORE PUSH32 0x205468697320436F6E7472616374000000000000000000000000000000000000 PUSH1 0x64 DUP3 ADD MSTORE PUSH1 0x84 ADD PUSH2 0x2DC JUMP JUMPDEST PUSH1 0x40 MLOAD PUSH32 0x6352211E00000000000000000000000000000000000000000000000000000000 DUP2 MSTORE PUSH1 0x4 DUP2 ADD DUP5 SWAP1 MSTORE PUSH20 0xFFFFFFFFFFFFFFFFFFFFFFFFFFFFFFFFFFFFFFFF DUP1 DUP4 AND SWAP2 SWAP1 DUP7 AND SWAP1 PUSH4 0x6352211E SWAP1 PUSH1 0x24 ADD PUSH1 0x20 PUSH1 0x40 MLOAD DUP1 DUP4 SUB DUP2 DUP7 DUP1 EXTCODESIZE ISZERO DUP1 ISZERO PUSH2 0x9AF JUMPI PUSH1 0x0 DUP1 REVERT JUMPDEST POP GAS STATICCALL ISZERO DUP1 ISZERO PUSH2 0x9C3 JUMPI RETURNDATASIZE PUSH1 0x0 DUP1 RETURNDATACOPY RETURNDATASIZE PUSH1 0x0 REVERT JUMPDEST POP POP POP POP PUSH1 0x40 MLOAD RETURNDATASIZE PUSH1 0x1F NOT PUSH1 0x1F DUP3 ADD AND DUP3 ADD DUP1 PUSH1 0x40 MSTORE POP DUP2 ADD SWAP1 PUSH2 0x9E7 SWAP2 SWAP1 PUSH2 0x1139 JUMP JUMPDEST PUSH20 0xFFFFFFFFFFFFFFFFFFFFFFFFFFFFFFFFFFFFFFFF AND EQ PUSH2 0xA8A JUMPI PUSH1 0x40 MLOAD PUSH32 0x8C379A000000000000000000000000000000000000000000000000000000000 DUP2 MSTORE PUSH1 0x20 PUSH1 0x4 DUP3 ADD MSTORE PUSH1 0x28 PUSH1 0x24 DUP3 ADD MSTORE PUSH32 0x4F6E6C79204F776E6572204F662054686973204E46542043616E204C69737420 PUSH1 0x44 DUP3 ADD MSTORE PUSH32 0x54686973204E4654000000000000000000000000000000000000000000000000 PUSH1 0x64 DUP3 ADD MSTORE PUSH1 0x84 ADD PUSH2 0x2DC JUMP JUMPDEST PUSH1 0x40 MLOAD PUSH32 0x42842E0E00000000000000000000000000000000000000000000000000000000 DUP2 MSTORE PUSH20 0xFFFFFFFFFFFFFFFFFFFFFFFFFFFFFFFFFFFFFFFF DUP3 DUP2 AND PUSH1 0x4 DUP4 ADD MSTORE ADDRESS PUSH1 0x24 DUP4 ADD MSTORE PUSH1 0x44 DUP3 ADD DUP6 SWAP1 MSTORE DUP6 AND SWAP1 PUSH4 0x42842E0E SWAP1 PUSH1 0x64 ADD PUSH1 0x0 PUSH1 0x40 MLOAD DUP1 DUP4 SUB DUP2 PUSH1 0x0 DUP8 DUP1 EXTCODESIZE ISZERO DUP1 ISZERO PUSH2 0xB00 JUMPI PUSH1 0x0 DUP1 REVERT JUMPDEST POP GAS CALL ISZERO DUP1 ISZERO PUSH2 0xB14 JUMPI RETURNDATASIZE PUSH1 0x0 DUP1 RETURNDATACOPY RETURNDATASIZE PUSH1 0x0 REVERT JUMPDEST POP POP PUSH1 0x2 DUP1 SLOAD SWAP3 POP SWAP1 POP PUSH1 0x0 PUSH2 0xB29 DUP4 PUSH2 0x1156 JUMP JUMPDEST SWAP1 SWAP2 SSTORE POP POP PUSH1 0x2 DUP1 SLOAD PUSH1 0x40 DUP1 MLOAD PUSH1 0xA0 DUP2 ADD DUP3 MSTORE PUSH20 0xFFFFFFFFFFFFFFFFFFFFFFFFFFFFFFFFFFFFFFFF DUP6 DUP2 AND DUP1 DUP4 MSTORE DUP10 DUP3 AND PUSH1 0x20 DUP1 DUP6 ADD DUP3 DUP2 MSTORE DUP6 DUP8 ADD DUP13 DUP2 MSTORE PUSH1 0x60 DUP1 DUP9 ADD DUP14 DUP2 MSTORE PUSH1 0x0 PUSH1 0x80 DUP11 ADD DUP2 DUP2 MSTORE DUP13 DUP3 MSTORE PUSH1 0x3 DUP1 DUP9 MSTORE DUP13 DUP4 KECCAK256 SWAP12 MLOAD DUP13 SLOAD SWAP1 DUP13 AND PUSH32 0xFFFFFFFFFFFFFFFFFFFFFFFF0000000000000000000000000000000000000000 SWAP2 DUP3 AND OR DUP14 SSTORE SWAP7 MLOAD PUSH1 0x1 DUP1 DUP15 ADD DUP1 SLOAD SWAP3 DUP15 AND SWAP3 DUP11 AND SWAP3 SWAP1 SWAP3 OR SWAP1 SWAP2 SSTORE SWAP6 MLOAD SWAP15 DUP13 ADD SWAP15 SWAP1 SWAP15 SSTORE SWAP2 MLOAD SWAP13 DUP11 ADD SWAP13 SWAP1 SWAP13 SSTORE MLOAD PUSH1 0x4 SWAP9 DUP10 ADD DUP1 SLOAD SWAP2 SWAP1 SWAP9 AND SWAP4 AND SWAP3 SWAP1 SWAP3 OR SWAP1 SWAP6 SSTORE DUP4 DUP10 MSTORE SWAP5 DUP2 MSTORE DUP6 DUP9 KECCAK256 DUP1 SLOAD SWAP5 DUP6 ADD DUP2 SSTORE DUP9 MSTORE SWAP7 DUP8 SWAP1 KECCAK256 SWAP1 SWAP3 ADD DUP6 SWAP1 SSTORE DUP4 MLOAD SWAP2 DUP3 MSTORE SWAP5 DUP2 ADD DUP8 SWAP1 MSTORE TIMESTAMP SWAP3 DUP2 ADD SWAP3 SWAP1 SWAP3 MSTORE SWAP2 SWAP3 DUP4 SWAP3 DUP8 SWAP3 PUSH32 0xAF479EBB9688734E395AE86AA7CE9354466240D8FBC4411946DE41BD9BFAEBF6 SWAP2 ADD PUSH1 0x40 MLOAD DUP1 SWAP2 SUB SWAP1 LOG4 POP POP POP POP POP JUMP JUMPDEST PUSH1 0x40 MLOAD PUSH32 0x1FFC9A700000000000000000000000000000000000000000000000000000000 DUP2 MSTORE PUSH32 0x2A55205A00000000000000000000000000000000000000000000000000000000 PUSH1 0x4 DUP3 ADD MSTORE PUSH1 0x0 SWAP1 DUP2 SWAP1 PUSH20 0xFFFFFFFFFFFFFFFFFFFFFFFFFFFFFFFFFFFFFFFF DUP5 AND SWAP1 PUSH4 0x1FFC9A7 SWAP1 PUSH1 0x24 ADD PUSH1 0x20 PUSH1 0x40 MLOAD DUP1 DUP4 SUB DUP2 DUP7 DUP1 EXTCODESIZE ISZERO DUP1 ISZERO PUSH2 0xCE0 JUMPI PUSH1 0x0 DUP1 REVERT JUMPDEST POP GAS STATICCALL ISZERO DUP1 ISZERO PUSH2 0xCF4 JUMPI RETURNDATASIZE PUSH1 0x0 DUP1 RETURNDATACOPY RETURNDATASIZE PUSH1 0x0 REVERT JUMPDEST POP POP POP POP PUSH1 0x40 MLOAD RETURNDATASIZE PUSH1 0x1F NOT PUSH1 0x1F DUP3 ADD AND DUP3 ADD DUP1 PUSH1 0x40 MSTORE POP DUP2 ADD SWAP1 PUSH2 0xD18 SWAP2 SWAP1 PUSH2 0x118F JUMP JUMPDEST SWAP4 SWAP3 POP POP POP JUMP JUMPDEST PUSH1 0x40 DUP1 MLOAD PUSH1 0xA0 DUP2 ADD DUP3 MSTORE PUSH1 0x0 DUP1 DUP3 MSTORE PUSH1 0x20 DUP3 ADD DUP2 SWAP1 MSTORE SWAP2 DUP2 ADD DUP3 SWAP1 MSTORE PUSH1 0x60 DUP2 ADD DUP3 SWAP1 MSTORE PUSH1 0x80 DUP2 ADD SWAP2 SWAP1 SWAP2 MSTORE DUP2 PUSH1 0x0 DUP2 GT DUP1 ISZERO PUSH2 0xD5D JUMPI POP PUSH1 0x2 SLOAD DUP2 GT ISZERO JUMPDEST PUSH2 0xDC3 JUMPI PUSH1 0x40 MLOAD PUSH32 0x8C379A000000000000000000000000000000000000000000000000000000000 DUP2 MSTORE PUSH1 0x20 PUSH1 0x4 DUP3 ADD MSTORE PUSH1 0x12 PUSH1 0x24 DUP3 ADD MSTORE PUSH32 0x496E76616C6964204C697374696E672049640000000000000000000000000000 PUSH1 0x44 DUP3 ADD MSTORE PUSH1 0x64 ADD PUSH2 0x2DC JUMP JUMPDEST POP POP PUSH1 0x0 SWAP1 DUP2 MSTORE PUSH1 0x3 PUSH1 0x20 DUP2 DUP2 MSTORE PUSH1 0x40 SWAP3 DUP4 SWAP1 KECCAK256 DUP4 MLOAD PUSH1 0xA0 DUP2 ADD DUP6 MSTORE DUP2 SLOAD PUSH20 0xFFFFFFFFFFFFFFFFFFFFFFFFFFFFFFFFFFFFFFFF SWAP1 DUP2 AND DUP3 MSTORE PUSH1 0x1 DUP4 ADD SLOAD DUP2 AND SWAP4 DUP3 ADD SWAP4 SWAP1 SWAP4 MSTORE PUSH1 0x2 DUP3 ADD SLOAD SWAP5 DUP2 ADD SWAP5 SWAP1 SWAP5 MSTORE SWAP2 DUP3 ADD SLOAD PUSH1 0x60 DUP5 ADD MSTORE PUSH1 0x4 SWAP1 SWAP2 ADD SLOAD AND PUSH1 0x80 DUP3 ADD MSTORE SWAP1 JUMP JUMPDEST PUSH20 0xFFFFFFFFFFFFFFFFFFFFFFFFFFFFFFFFFFFFFFFF DUP2 AND PUSH1 0x0 SWAP1 DUP2 MSTORE PUSH1 0x4 PUSH1 0x20 SWAP1 DUP2 MSTORE PUSH1 0x40 SWAP2 DUP3 SWAP1 KECCAK256 DUP1 SLOAD DUP4 MLOAD DUP2 DUP5 MUL DUP2 ADD DUP5 ADD SWAP1 SWAP5 MSTORE DUP1 DUP5 MSTORE PUSH1 0x60 SWAP4 SWAP3 DUP4 ADD DUP3 DUP3 DUP1 ISZERO PUSH2 0xE9A JUMPI PUSH1 0x20 MUL DUP3 ADD SWAP2 SWAP1 PUSH1 0x0 MSTORE PUSH1 0x20 PUSH1 0x0 KECCAK256 SWAP1 JUMPDEST DUP2 SLOAD DUP2 MSTORE PUSH1 0x20 ADD SWAP1 PUSH1 0x1 ADD SWAP1 DUP1 DUP4 GT PUSH2 0xE86 JUMPI JUMPDEST POP POP POP POP POP SWAP1 POP SWAP2 SWAP1 POP JUMP JUMPDEST PUSH1 0x0 SLOAD PUSH20 0xFFFFFFFFFFFFFFFFFFFFFFFFFFFFFFFFFFFFFFFF AND CALLER EQ PUSH2 0xF4D JUMPI PUSH1 0x40 MLOAD PUSH32 0x8C379A000000000000000000000000000000000000000000000000000000000 DUP2 MSTORE PUSH1 0x20 PUSH1 0x4 DUP3 ADD MSTORE PUSH1 0x30 PUSH1 0x24 DUP3 ADD MSTORE PUSH32 0x4F6E6C79206D61726B6574706C616365206F776E65722063616E207570646174 PUSH1 0x44 DUP3 ADD MSTORE PUSH32 0x65206C697374696E672070726963652E00000000000000000000000000000000 PUSH1 0x64 DUP3 ADD MSTORE PUSH1 0x84 ADD PUSH2 0x2DC JUMP JUMPDEST PUSH1 0x1 SSTORE JUMP JUMPDEST PUSH20 0xFFFFFFFFFFFFFFFFFFFFFFFFFFFFFFFFFFFFFFFF DUP2 AND DUP2 EQ PUSH2 0xF74 JUMPI PUSH1 0x0 DUP1 REVERT JUMPDEST POP JUMP JUMPDEST PUSH1 0x0 DUP1 PUSH1 0x0 DUP1 PUSH1 0x0 PUSH1 0x80 DUP7 DUP9 SUB SLT ISZERO PUSH2 0xF8F JUMPI PUSH1 0x0 DUP1 REVERT JUMPDEST DUP6 CALLDATALOAD PUSH2 0xF9A DUP2 PUSH2 0xF52 JUMP JUMPDEST SWAP5 POP PUSH1 0x20 DUP7 ADD CALLDATALOAD PUSH2 0xFAA DUP2 PUSH2 0xF52 JUMP JUMPDEST SWAP4 POP PUSH1 0x40 DUP7 ADD CALLDATALOAD SWAP3 POP PUSH1 0x60 DUP7 ADD CALLDATALOAD PUSH8 0xFFFFFFFFFFFFFFFF DUP1 DUP3 GT ISZERO PUSH2 0xFCE JUMPI PUSH1 0x0 DUP1 REVERT JUMPDEST DUP2 DUP9 ADD SWAP2 POP DUP9 PUSH1 0x1F DUP4 ADD SLT PUSH2 0xFE2 JUMPI PUSH1 0x0 DUP1 REVERT JUMPDEST DUP2 CALLDATALOAD DUP2 DUP2 GT ISZERO PUSH2 0xFF1 JUMPI PUSH1 0x0 DUP1 REVERT JUMPDEST DUP10 PUSH1 0x20 DUP3 DUP6 ADD ADD GT ISZERO PUSH2 0x1003 JUMPI PUSH1 0x0 DUP1 REVERT JUMPDEST SWAP7 SWAP10 SWAP6 SWAP9 POP SWAP4 SWAP7 POP PUSH1 0x20 ADD SWAP5 SWAP4 SWAP3 POP POP POP JUMP JUMPDEST PUSH1 0x0 PUSH1 0x20 DUP3 DUP5 SUB SLT ISZERO PUSH2 0x1028 JUMPI PUSH1 0x0 DUP1 REVERT JUMPDEST POP CALLDATALOAD SWAP2 SWAP1 POP JUMP JUMPDEST PUSH1 0x0 DUP1 PUSH1 0x0 PUSH1 0x60 DUP5 DUP7 SUB SLT ISZERO PUSH2 0x1044 JUMPI PUSH1 0x0 DUP1 REVERT JUMPDEST DUP4 CALLDATALOAD PUSH2 0x104F DUP2 PUSH2 0xF52 JUMP JUMPDEST SWAP6 PUSH1 0x20 DUP6 ADD CALLDATALOAD SWAP6 POP PUSH1 0x40 SWAP1 SWAP5 ADD CALLDATALOAD SWAP4 SWAP3 POP POP POP JUMP JUMPDEST PUSH1 0x0 PUSH1 0x20 DUP3 DUP5 SUB SLT ISZERO PUSH2 0x1076 JUMPI PUSH1 0x0 DUP1 REVERT JUMPDEST DUP2 CALLDATALOAD PUSH2 0xD18 DUP2 PUSH2 0xF52 JUMP JUMPDEST PUSH1 0x20 DUP1 DUP3 MSTORE DUP3 MLOAD DUP3 DUP3 ADD DUP2 SWAP1 MSTORE PUSH1 0x0 SWAP2 SWAP1 DUP5 DUP3 ADD SWAP1 PUSH1 0x40 DUP6 ADD SWAP1 DUP5 JUMPDEST DUP2 DUP2 LT ISZERO PUSH2 0x10B9 JUMPI DUP4 MLOAD DUP4 MSTORE SWAP3 DUP5 ADD SWAP3 SWAP2 DUP5 ADD SWAP2 PUSH1 0x1 ADD PUSH2 0x109D JUMP JUMPDEST POP SWAP1 SWAP7 SWAP6 POP POP POP POP POP POP JUMP JUMPDEST PUSH1 0x0 DUP1 PUSH1 0x40 DUP4 DUP6 SUB SLT ISZERO PUSH2 0x10D8 JUMPI PUSH1 0x0 DUP1 REVERT JUMPDEST DUP3 MLOAD PUSH2 0x10E3 DUP2 PUSH2 0xF52 JUMP JUMPDEST PUSH1 0x20 SWAP4 SWAP1 SWAP4 ADD MLOAD SWAP3 SWAP5 SWAP3 SWAP4 POP POP POP JUMP JUMPDEST PUSH32 0x4E487B7100000000000000000000000000000000000000000000000000000000 PUSH1 0x0 MSTORE PUSH1 0x11 PUSH1 0x4 MSTORE PUSH1 0x24 PUSH1 0x0 REVERT JUMPDEST PUSH1 0x0 DUP3 DUP3 LT ISZERO PUSH2 0x1134 JUMPI PUSH2 0x1134 PUSH2 0x10F3 JUMP JUMPDEST POP SUB SWAP1 JUMP JUMPDEST PUSH1 0x0 PUSH1 0x20 DUP3 DUP5 SUB SLT ISZERO PUSH2 0x114B JUMPI PUSH1 0x0 DUP1 REVERT JUMPDEST DUP2 MLOAD PUSH2 0xD18 DUP2 PUSH2 0xF52 JUMP JUMPDEST PUSH1 0x0 PUSH32 0xFFFFFFFFFFFFFFFFFFFFFFFFFFFFFFFFFFFFFFFFFFFFFFFFFFFFFFFFFFFFFFFF DUP3 EQ ISZERO PUSH2 0x1188 JUMPI PUSH2 0x1188 PUSH2 0x10F3 JUMP JUMPDEST POP PUSH1 0x1 ADD SWAP1 JUMP JUMPDEST PUSH1 0x0 PUSH1 0x20 DUP3 DUP5 SUB SLT ISZERO PUSH2 0x11A1 JUMPI PUSH1 0x0 DUP1 REVERT JUMPDEST DUP2 MLOAD DUP1 ISZERO ISZERO DUP2 EQ PUSH2 0xD18 JUMPI PUSH1 0x0 DUP1 REVERT INVALID LOG2 PUSH5 0x6970667358 0x22 SLT KECCAK256 CREATE PUSH16 0x5F2A0C60B7EE7C7E3C8CAE581DDA74C8 PUSH29 0x558C6F921EE674C7EBCDFEA5B064736F6C634300080900330000000000 "},"methodIdentifiers":{"_listingData(uint256)":"e2acb8a0","_listingTransactionFee()":"a3413e0a","_totalListings()":"1ee826cd","_usersListings(address)":"e605722e","buyListedNFT(uint256)":"595f68b5","checkRoyalties(address)":"c0a51587","listNFT(address,uint256,uint256)":"ad05f1b4","onERC721Received(address,address,uint256,bytes)":"150b7a02","updateListingFee(uint256)":"f79d91ae"}}}}}