{
  "_format": "hh-sol-artifact-1",
  "contractName": "MyNFT",
  "sourceName": "contracts/NFTMarketPlace.sol",
  "abi": [
    {
      "inputs": [],
      "stateMutability": "nonpayable",
      "type": "constructor"
    },
    {
      "anonymous": false,
      "inputs": [
        {
          "indexed": true,
          "internalType": "address",
          "name": "owner",
          "type": "address"
        },
        {
          "indexed": true,
          "internalType": "address",
          "name": "approved",
          "type": "address"
        },
        {
          "indexed": true,
          "internalType": "uint256",
          "name": "tokenId",
          "type": "uint256"
        }
      ],
      "name": "Approval",
      "type": "event"
    },
    {
      "anonymous": false,
      "inputs": [
        {
          "indexed": true,
          "internalType": "address",
          "name": "owner",
          "type": "address"
        },
        {
          "indexed": true,
          "internalType": "address",
          "name": "operator",
          "type": "address"
        },
        {
          "indexed": false,
          "internalType": "bool",
          "name": "approved",
          "type": "bool"
        }
      ],
      "name": "ApprovalForAll",
      "type": "event"
    },
    {
      "anonymous": false,
      "inputs": [
        {
          "indexed": true,
          "internalType": "address",
          "name": "previousOwner",
          "type": "address"
        },
        {
          "indexed": true,
          "internalType": "address",
          "name": "newOwner",
          "type": "address"
        }
      ],
      "name": "OwnershipTransferred",
      "type": "event"
    },
    {
      "anonymous": false,
      "inputs": [
        {
          "indexed": true,
          "internalType": "address",
          "name": "from",
          "type": "address"
        },
        {
          "indexed": true,
          "internalType": "address",
          "name": "to",
          "type": "address"
        },
        {
          "indexed": true,
          "internalType": "uint256",
          "name": "tokenId",
          "type": "uint256"
        }
      ],
      "name": "Transfer",
      "type": "event"
    },
    {
      "inputs": [],
      "name": "_mintingTransactionFee",
      "outputs": [
        {
          "internalType": "uint256",
          "name": "",
          "type": "uint256"
        }
      ],
      "stateMutability": "view",
      "type": "function"
    },
    {
      "inputs": [
        {
          "internalType": "address",
          "name": "to",
          "type": "address"
        },
        {
          "internalType": "uint256",
          "name": "tokenId",
          "type": "uint256"
        }
      ],
      "name": "approve",
      "outputs": [],
      "stateMutability": "nonpayable",
      "type": "function"
    },
    {
      "inputs": [
        {
          "internalType": "address",
          "name": "owner",
          "type": "address"
        }
      ],
      "name": "balanceOf",
      "outputs": [
        {
          "internalType": "uint256",
          "name": "",
          "type": "uint256"
        }
      ],
      "stateMutability": "view",
      "type": "function"
    },
    {
      "inputs": [
        {
          "internalType": "uint256",
          "name": "tokenId",
          "type": "uint256"
        }
      ],
      "name": "getApproved",
      "outputs": [
        {
          "internalType": "address",
          "name": "",
          "type": "address"
        }
      ],
      "stateMutability": "view",
      "type": "function"
    },
    {
      "inputs": [
        {
          "internalType": "address",
          "name": "owner",
          "type": "address"
        },
        {
          "internalType": "address",
          "name": "operator",
          "type": "address"
        }
      ],
      "name": "isApprovedForAll",
      "outputs": [
        {
          "internalType": "bool",
          "name": "",
          "type": "bool"
        }
      ],
      "stateMutability": "view",
      "type": "function"
    },
    {
      "inputs": [],
      "name": "name",
      "outputs": [
        {
          "internalType": "string",
          "name": "",
          "type": "string"
        }
      ],
      "stateMutability": "view",
      "type": "function"
    },
    {
      "inputs": [],
      "name": "owner",
      "outputs": [
        {
          "internalType": "address",
          "name": "",
          "type": "address"
        }
      ],
      "stateMutability": "view",
      "type": "function"
    },
    {
      "inputs": [
        {
          "internalType": "uint256",
          "name": "tokenId",
          "type": "uint256"
        }
      ],
      "name": "ownerOf",
      "outputs": [
        {
          "internalType": "address",
          "name": "",
          "type": "address"
        }
      ],
      "stateMutability": "view",
      "type": "function"
    },
    {
      "inputs": [],
      "name": "renounceOwnership",
      "outputs": [],
      "stateMutability": "nonpayable",
      "type": "function"
    },
    {
      "inputs": [
        {
          "internalType": "uint256",
          "name": "_tokenId",
          "type": "uint256"
        },
        {
          "internalType": "uint256",
          "name": "_salePrice",
          "type": "uint256"
        }
      ],
      "name": "royaltyInfo",
      "outputs": [
        {
          "internalType": "address",
          "name": "",
          "type": "address"
        },
        {
          "internalType": "uint256",
          "name": "",
          "type": "uint256"
        }
      ],
      "stateMutability": "view",
      "type": "function"
    },
    {
      "inputs": [
        {
          "internalType": "address",
          "name": "royaltyReceiver",
          "type": "address"
        },
        {
          "internalType": "string",
          "name": "tokenURI",
          "type": "string"
        },
        {
          "internalType": "uint96",
          "name": "feeNumerator",
          "type": "uint96"
        }
      ],
      "name": "safeMintWithRoyality",
      "outputs": [],
      "stateMutability": "payable",
      "type": "function"
    },
    {
      "inputs": [
        {
          "internalType": "address",
          "name": "from",
          "type": "address"
        },
        {
          "internalType": "address",
          "name": "to",
          "type": "address"
        },
        {
          "internalType": "uint256",
          "name": "tokenId",
          "type": "uint256"
        }
      ],
      "name": "safeTransferFrom",
      "outputs": [],
      "stateMutability": "nonpayable",
      "type": "function"
    },
    {
      "inputs": [
        {
          "internalType": "address",
          "name": "from",
          "type": "address"
        },
        {
          "internalType": "address",
          "name": "to",
          "type": "address"
        },
        {
          "internalType": "uint256",
          "name": "tokenId",
          "type": "uint256"
        },
        {
          "internalType": "bytes",
          "name": "data",
          "type": "bytes"
        }
      ],
      "name": "safeTransferFrom",
      "outputs": [],
      "stateMutability": "nonpayable",
      "type": "function"
    },
    {
      "inputs": [
        {
          "internalType": "address",
          "name": "operator",
          "type": "address"
        },
        {
          "internalType": "bool",
          "name": "approved",
          "type": "bool"
        }
      ],
      "name": "setApprovalForAll",
      "outputs": [],
      "stateMutability": "nonpayable",
      "type": "function"
    },
    {
      "inputs": [
        {
          "internalType": "bytes4",
          "name": "interfaceId",
          "type": "bytes4"
        }
      ],
      "name": "supportsInterface",
      "outputs": [
        {
          "internalType": "bool",
          "name": "",
          "type": "bool"
        }
      ],
      "stateMutability": "view",
      "type": "function"
    },
    {
      "inputs": [],
      "name": "symbol",
      "outputs": [
        {
          "internalType": "string",
          "name": "",
          "type": "string"
        }
      ],
      "stateMutability": "view",
      "type": "function"
    },
    {
      "inputs": [
        {
          "internalType": "uint256",
          "name": "tokenId",
          "type": "uint256"
        }
      ],
      "name": "tokenURI",
      "outputs": [
        {
          "internalType": "string",
          "name": "",
          "type": "string"
        }
      ],
      "stateMutability": "view",
      "type": "function"
    },
    {
      "inputs": [
        {
          "internalType": "address",
          "name": "from",
          "type": "address"
        },
        {
          "internalType": "address",
          "name": "to",
          "type": "address"
        },
        {
          "internalType": "uint256",
          "name": "tokenId",
          "type": "uint256"
        }
      ],
      "name": "transferFrom",
      "outputs": [],
      "stateMutability": "nonpayable",
      "type": "function"
    },
    {
      "inputs": [
        {
          "internalType": "address",
          "name": "newOwner",
          "type": "address"
        }
      ],
      "name": "transferOwnership",
      "outputs": [],
      "stateMutability": "nonpayable",
      "type": "function"
    },
    {
      "inputs": [
        {
          "internalType": "uint256",
          "name": "_mintingPrice",
          "type": "uint256"
        }
      ],
      "name": "updateMintingFee",
      "outputs": [],
      "stateMutability": "nonpayable",
      "type": "function"
    }
  ],
  "bytecode": "0x608060405265e35fa931a000600c553480156200001b57600080fd5b506040805180820182526005815264135e53919560da1b6020808301918252835180850190945260038452624d544b60e81b9084015281519192916200006491600091620000f3565b5080516200007a906001906020840190620000f3565b50505062000097620000916200009d60201b60201c565b620000a1565b620001d6565b3390565b600980546001600160a01b038381166001600160a01b0319831681179093556040519116919082907f8be0079c531659141344cd1fd0a4f28419497f9722a3daafe3b4186f6b6457e090600090a35050565b828054620001019062000199565b90600052602060002090601f01602090048101928262000125576000855562000170565b82601f106200014057805160ff191683800117855562000170565b8280016001018555821562000170579182015b828111156200017057825182559160200191906001019062000153565b506200017e92915062000182565b5090565b5b808211156200017e576000815560010162000183565b600181811c90821680620001ae57607f821691505b60208210811415620001d057634e487b7160e01b600052602260045260246000fd5b50919050565b61224180620001e66000396000f3fe60806040526004361061015f5760003560e01c8063715018a6116100c0578063b88d4fde11610074578063c87b56dd11610059578063c87b56dd146103d5578063e985e9c5146103f5578063f2fde38b1461044b57600080fd5b8063b88d4fde14610395578063c0275a25146103b557600080fd5b80638da5cb5b116100a55780638da5cb5b1461033557806395d89b4114610360578063a22cb4651461037557600080fd5b8063715018a61461030d57806385749a551461032257600080fd5b80632a55205a116101175780634ee92f36116100fc5780634ee92f36146102ae5780636352211e146102cd57806370a08231146102ed57600080fd5b80632a55205a1461024257806342842e0e1461028e57600080fd5b8063081812fc11610148578063081812fc146101bb578063095ea7b31461020057806323b872dd1461022257600080fd5b806301ffc9a71461016457806306fdde0314610199575b600080fd5b34801561017057600080fd5b5061018461017f366004611c08565b61046b565b60405190151581526020015b60405180910390f35b3480156101a557600080fd5b506101ae61047c565b6040516101909190611c9b565b3480156101c757600080fd5b506101db6101d6366004611cae565b61050e565b60405173ffffffffffffffffffffffffffffffffffffffff9091168152602001610190565b34801561020c57600080fd5b5061022061021b366004611cf0565b610542565b005b34801561022e57600080fd5b5061022061023d366004611d1a565b6106a0565b34801561024e57600080fd5b5061026261025d366004611d56565b610727565b6040805173ffffffffffffffffffffffffffffffffffffffff9093168352602083019190915201610190565b34801561029a57600080fd5b506102206102a9366004611d1a565b61081e565b3480156102ba57600080fd5b50600c545b604051908152602001610190565b3480156102d957600080fd5b506101db6102e8366004611cae565b610839565b3480156102f957600080fd5b506102bf610308366004611d78565b6108ab565b34801561031957600080fd5b5061022061095f565b610220610330366004611e56565b610973565b34801561034157600080fd5b5060095473ffffffffffffffffffffffffffffffffffffffff166101db565b34801561036c57600080fd5b506101ae610a04565b34801561038157600080fd5b50610220610390366004611edd565b610a13565b3480156103a157600080fd5b506102206103b0366004611f19565b610a22565b3480156103c157600080fd5b506102206103d0366004611cae565b610aaa565b3480156103e157600080fd5b506101ae6103f0366004611cae565b610ab7565b34801561040157600080fd5b50610184610410366004611f95565b73ffffffffffffffffffffffffffffffffffffffff918216600090815260056020908152604080832093909416825291909152205460ff1690565b34801561045757600080fd5b50610220610466366004611d78565b610bc8565b600061047682610c65565b92915050565b60606000805461048b90611fc8565b80601f01602080910402602001604051908101604052809291908181526020018280546104b790611fc8565b80156105045780601f106104d957610100808354040283529160200191610504565b820191906000526020600020905b8154815290600101906020018083116104e757829003601f168201915b5050505050905090565b600061051982610cbb565b5060009081526004602052604090205473ffffffffffffffffffffffffffffffffffffffff1690565b600061054d82610839565b90508073ffffffffffffffffffffffffffffffffffffffff168373ffffffffffffffffffffffffffffffffffffffff1614156105f65760405162461bcd60e51b815260206004820152602160248201527f4552433732313a20617070726f76616c20746f2063757272656e74206f776e6560448201527f720000000000000000000000000000000000000000000000000000000000000060648201526084015b60405180910390fd5b3373ffffffffffffffffffffffffffffffffffffffff8216148061061f575061061f8133610410565b6106915760405162461bcd60e51b815260206004820152603e60248201527f4552433732313a20617070726f76652063616c6c6572206973206e6f7420746f60448201527f6b656e206f776e6572206e6f7220617070726f76656420666f7220616c6c000060648201526084016105ed565b61069b8383610d2c565b505050565b6106aa3382610dcc565b61071c5760405162461bcd60e51b815260206004820152602e60248201527f4552433732313a2063616c6c6572206973206e6f7420746f6b656e206f776e6560448201527f72206e6f7220617070726f76656400000000000000000000000000000000000060648201526084016105ed565b61069b838383610e8b565b600082815260086020908152604080832081518083019092525473ffffffffffffffffffffffffffffffffffffffff8116808352740100000000000000000000000000000000000000009091046bffffffffffffffffffffffff169282019290925282916107e257506040805180820190915260075473ffffffffffffffffffffffffffffffffffffffff811682527401000000000000000000000000000000000000000090046bffffffffffffffffffffffff1660208201525b602081015160009061271090610806906bffffffffffffffffffffffff168761204b565b61081091906120b7565b915196919550909350505050565b61069b83838360405180602001604052806000815250610a22565b60008181526002602052604081205473ffffffffffffffffffffffffffffffffffffffff16806104765760405162461bcd60e51b815260206004820152601860248201527f4552433732313a20696e76616c696420746f6b656e204944000000000000000060448201526064016105ed565b600073ffffffffffffffffffffffffffffffffffffffff82166109365760405162461bcd60e51b815260206004820152602960248201527f4552433732313a2061646472657373207a65726f206973206e6f74206120766160448201527f6c6964206f776e6572000000000000000000000000000000000000000000000060648201526084016105ed565b5073ffffffffffffffffffffffffffffffffffffffff1660009081526003602052604090205490565b6109676110be565b6109716000611125565b565b600c5434146109c45760405162461bcd60e51b815260206004820152601f60248201527f596f752073686f756c642070617920746865206d696e74696e67206665652e0060448201526064016105ed565b6109d2600a80546001019055565b60006109dd600a5490565b90506109e9338261119c565b6109f3818461132a565b6109fe8185846113e0565b50505050565b60606001805461048b90611fc8565b610a1e338383611536565b5050565b610a2c3383610dcc565b610a9e5760405162461bcd60e51b815260206004820152602e60248201527f4552433732313a2063616c6c6572206973206e6f7420746f6b656e206f776e6560448201527f72206e6f7220617070726f76656400000000000000000000000000000000000060648201526084016105ed565b6109fe8484848461164a565b610ab26110be565b600c55565b6060610ac282610cbb565b60008281526006602052604081208054610adb90611fc8565b80601f0160208091040260200160405190810160405280929190818152602001828054610b0790611fc8565b8015610b545780601f10610b2957610100808354040283529160200191610b54565b820191906000526020600020905b815481529060010190602001808311610b3757829003601f168201915b505050505090506000610b7260408051602081019091526000815290565b9050805160001415610b85575092915050565b815115610bb7578082604051602001610b9f9291906120cb565b60405160208183030381529060405292505050919050565b610bc0846116d3565b949350505050565b610bd06110be565b73ffffffffffffffffffffffffffffffffffffffff8116610c595760405162461bcd60e51b815260206004820152602660248201527f4f776e61626c653a206e6577206f776e657220697320746865207a65726f206160448201527f646472657373000000000000000000000000000000000000000000000000000060648201526084016105ed565b610c6281611125565b50565b60007fffffffff0000000000000000000000000000000000000000000000000000000082167f2a55205a000000000000000000000000000000000000000000000000000000001480610476575061047682611747565b60008181526002602052604090205473ffffffffffffffffffffffffffffffffffffffff16610c625760405162461bcd60e51b815260206004820152601860248201527f4552433732313a20696e76616c696420746f6b656e204944000000000000000060448201526064016105ed565b600081815260046020526040902080547fffffffffffffffffffffffff00000000000000000000000000000000000000001673ffffffffffffffffffffffffffffffffffffffff84169081179091558190610d8682610839565b73ffffffffffffffffffffffffffffffffffffffff167f8c5be1e5ebec7d5bd14f71427d1e84f3dd0314c0f7b2291e5b200ac8c7c3b92560405160405180910390a45050565b600080610dd883610839565b90508073ffffffffffffffffffffffffffffffffffffffff168473ffffffffffffffffffffffffffffffffffffffff161480610e46575073ffffffffffffffffffffffffffffffffffffffff80821660009081526005602090815260408083209388168352929052205460ff165b80610bc057508373ffffffffffffffffffffffffffffffffffffffff16610e6c8461050e565b73ffffffffffffffffffffffffffffffffffffffff1614949350505050565b8273ffffffffffffffffffffffffffffffffffffffff16610eab82610839565b73ffffffffffffffffffffffffffffffffffffffff1614610f345760405162461bcd60e51b815260206004820152602560248201527f4552433732313a207472616e736665722066726f6d20696e636f72726563742060448201527f6f776e657200000000000000000000000000000000000000000000000000000060648201526084016105ed565b73ffffffffffffffffffffffffffffffffffffffff8216610fbc5760405162461bcd60e51b8152602060048201526024808201527f4552433732313a207472616e7366657220746f20746865207a65726f2061646460448201527f726573730000000000000000000000000000000000000000000000000000000060648201526084016105ed565b610fc7600082610d2c565b73ffffffffffffffffffffffffffffffffffffffff83166000908152600360205260408120805460019290610ffd9084906120fa565b909155505073ffffffffffffffffffffffffffffffffffffffff82166000908152600360205260408120805460019290611038908490612111565b909155505060008181526002602052604080822080547fffffffffffffffffffffffff00000000000000000000000000000000000000001673ffffffffffffffffffffffffffffffffffffffff86811691821790925591518493918716917fddf252ad1be2c89b69c2b068fc378daa952ba7f163c4a11628f55a4df523b3ef91a4505050565b60095473ffffffffffffffffffffffffffffffffffffffff1633146109715760405162461bcd60e51b815260206004820181905260248201527f4f776e61626c653a2063616c6c6572206973206e6f7420746865206f776e657260448201526064016105ed565b6009805473ffffffffffffffffffffffffffffffffffffffff8381167fffffffffffffffffffffffff0000000000000000000000000000000000000000831681179093556040519116919082907f8be0079c531659141344cd1fd0a4f28419497f9722a3daafe3b4186f6b6457e090600090a35050565b73ffffffffffffffffffffffffffffffffffffffff82166111ff5760405162461bcd60e51b815260206004820181905260248201527f4552433732313a206d696e7420746f20746865207a65726f206164647265737360448201526064016105ed565b60008181526002602052604090205473ffffffffffffffffffffffffffffffffffffffff16156112715760405162461bcd60e51b815260206004820152601c60248201527f4552433732313a20746f6b656e20616c7265616479206d696e7465640000000060448201526064016105ed565b73ffffffffffffffffffffffffffffffffffffffff821660009081526003602052604081208054600192906112a7908490612111565b909155505060008181526002602052604080822080547fffffffffffffffffffffffff00000000000000000000000000000000000000001673ffffffffffffffffffffffffffffffffffffffff861690811790915590518392907fddf252ad1be2c89b69c2b068fc378daa952ba7f163c4a11628f55a4df523b3ef908290a45050565b60008281526002602052604090205473ffffffffffffffffffffffffffffffffffffffff166113c15760405162461bcd60e51b815260206004820152602e60248201527f45524337323155524953746f726167653a2055524920736574206f66206e6f6e60448201527f6578697374656e7420746f6b656e00000000000000000000000000000000000060648201526084016105ed565b6000828152600660209081526040909120825161069b92840190611b41565b6127106bffffffffffffffffffffffff821611156114665760405162461bcd60e51b815260206004820152602a60248201527f455243323938313a20726f79616c7479206665652077696c6c2065786365656460448201527f2073616c6550726963650000000000000000000000000000000000000000000060648201526084016105ed565b73ffffffffffffffffffffffffffffffffffffffff82166114c95760405162461bcd60e51b815260206004820152601b60248201527f455243323938313a20496e76616c696420706172616d6574657273000000000060448201526064016105ed565b60408051808201825273ffffffffffffffffffffffffffffffffffffffff93841681526bffffffffffffffffffffffff9283166020808301918252600096875260089052919094209351905190911674010000000000000000000000000000000000000000029116179055565b8173ffffffffffffffffffffffffffffffffffffffff168373ffffffffffffffffffffffffffffffffffffffff1614156115b25760405162461bcd60e51b815260206004820152601960248201527f4552433732313a20617070726f766520746f2063616c6c65720000000000000060448201526064016105ed565b73ffffffffffffffffffffffffffffffffffffffff83811660008181526005602090815260408083209487168084529482529182902080547fffffffffffffffffffffffffffffffffffffffffffffffffffffffffffffff001686151590811790915591519182527f17307eab39ab6107e8899845ad3d59bd9653f200f220920489ca2b5937696c31910160405180910390a3505050565b611655848484610e8b565b6116618484848461182a565b6109fe5760405162461bcd60e51b815260206004820152603260248201527f4552433732313a207472616e7366657220746f206e6f6e20455243373231526560448201527f63656976657220696d706c656d656e746572000000000000000000000000000060648201526084016105ed565b60606116de82610cbb565b60006116f560408051602081019091526000815290565b905060008151116117155760405180602001604052806000815250611740565b8061171f84611a0f565b6040516020016117309291906120cb565b6040516020818303038152906040525b9392505050565b60007fffffffff0000000000000000000000000000000000000000000000000000000082167f80ac58cd0000000000000000000000000000000000000000000000000000000014806117da57507fffffffff0000000000000000000000000000000000000000000000000000000082167f5b5e139f00000000000000000000000000000000000000000000000000000000145b8061047657507f01ffc9a7000000000000000000000000000000000000000000000000000000007fffffffff00000000000000000000000000000000000000000000000000000000831614610476565b600073ffffffffffffffffffffffffffffffffffffffff84163b15611a04576040517f150b7a0200000000000000000000000000000000000000000000000000000000815273ffffffffffffffffffffffffffffffffffffffff85169063150b7a02906118a1903390899088908890600401612129565b602060405180830381600087803b1580156118bb57600080fd5b505af1925050508015611909575060408051601f3d9081017fffffffffffffffffffffffffffffffffffffffffffffffffffffffffffffffe016820190925261190691810190612172565b60015b6119b9573d808015611937576040519150601f19603f3d011682016040523d82523d6000602084013e61193c565b606091505b5080516119b15760405162461bcd60e51b815260206004820152603260248201527f4552433732313a207472616e7366657220746f206e6f6e20455243373231526560448201527f63656976657220696d706c656d656e746572000000000000000000000000000060648201526084016105ed565b805181602001fd5b7fffffffff00000000000000000000000000000000000000000000000000000000167f150b7a0200000000000000000000000000000000000000000000000000000000149050610bc0565b506001949350505050565b606081611a4f57505060408051808201909152600181527f3000000000000000000000000000000000000000000000000000000000000000602082015290565b8160005b8115611a795780611a638161218f565b9150611a729050600a836120b7565b9150611a53565b60008167ffffffffffffffff811115611a9457611a94611d93565b6040519080825280601f01601f191660200182016040528015611abe576020820181803683370190505b5090505b8415610bc057611ad36001836120fa565b9150611ae0600a866121c8565b611aeb906030612111565b60f81b818381518110611b0057611b006121dc565b60200101907effffffffffffffffffffffffffffffffffffffffffffffffffffffffffffff1916908160001a905350611b3a600a866120b7565b9450611ac2565b828054611b4d90611fc8565b90600052602060002090601f016020900481019282611b6f5760008555611bb5565b82601f10611b8857805160ff1916838001178555611bb5565b82800160010185558215611bb5579182015b82811115611bb5578251825591602001919060010190611b9a565b50611bc1929150611bc5565b5090565b5b80821115611bc15760008155600101611bc6565b7fffffffff0000000000000000000000000000000000000000000000000000000081168114610c6257600080fd5b600060208284031215611c1a57600080fd5b813561174081611bda565b60005b83811015611c40578181015183820152602001611c28565b838111156109fe5750506000910152565b60008151808452611c69816020860160208601611c25565b601f017fffffffffffffffffffffffffffffffffffffffffffffffffffffffffffffffe0169290920160200192915050565b6020815260006117406020830184611c51565b600060208284031215611cc057600080fd5b5035919050565b803573ffffffffffffffffffffffffffffffffffffffff81168114611ceb57600080fd5b919050565b60008060408385031215611d0357600080fd5b611d0c83611cc7565b946020939093013593505050565b600080600060608486031215611d2f57600080fd5b611d3884611cc7565b9250611d4660208501611cc7565b9150604084013590509250925092565b60008060408385031215611d6957600080fd5b50508035926020909101359150565b600060208284031215611d8a57600080fd5b61174082611cc7565b7f4e487b7100000000000000000000000000000000000000000000000000000000600052604160045260246000fd5b600067ffffffffffffffff80841115611ddd57611ddd611d93565b604051601f85017fffffffffffffffffffffffffffffffffffffffffffffffffffffffffffffffe0908116603f01168101908282118183101715611e2357611e23611d93565b81604052809350858152868686011115611e3c57600080fd5b858560208301376000602087830101525050509392505050565b600080600060608486031215611e6b57600080fd5b611e7484611cc7565b9250602084013567ffffffffffffffff811115611e9057600080fd5b8401601f81018613611ea157600080fd5b611eb086823560208401611dc2565b92505060408401356bffffffffffffffffffffffff81168114611ed257600080fd5b809150509250925092565b60008060408385031215611ef057600080fd5b611ef983611cc7565b915060208301358015158114611f0e57600080fd5b809150509250929050565b60008060008060808587031215611f2f57600080fd5b611f3885611cc7565b9350611f4660208601611cc7565b925060408501359150606085013567ffffffffffffffff811115611f6957600080fd5b8501601f81018713611f7a57600080fd5b611f8987823560208401611dc2565b91505092959194509250565b60008060408385031215611fa857600080fd5b611fb183611cc7565b9150611fbf60208401611cc7565b90509250929050565b600181811c90821680611fdc57607f821691505b60208210811415612016577f4e487b7100000000000000000000000000000000000000000000000000000000600052602260045260246000fd5b50919050565b7f4e487b7100000000000000000000000000000000000000000000000000000000600052601160045260246000fd5b6000817fffffffffffffffffffffffffffffffffffffffffffffffffffffffffffffffff04831182151516156120835761208361201c565b500290565b7f4e487b7100000000000000000000000000000000000000000000000000000000600052601260045260246000fd5b6000826120c6576120c6612088565b500490565b600083516120dd818460208801611c25565b8351908301906120f1818360208801611c25565b01949350505050565b60008282101561210c5761210c61201c565b500390565b600082198211156121245761212461201c565b500190565b600073ffffffffffffffffffffffffffffffffffffffff8087168352808616602084015250836040830152608060608301526121686080830184611c51565b9695505050505050565b60006020828403121561218457600080fd5b815161174081611bda565b60007fffffffffffffffffffffffffffffffffffffffffffffffffffffffffffffffff8214156121c1576121c161201c565b5060010190565b6000826121d7576121d7612088565b500690565b7f4e487b7100000000000000000000000000000000000000000000000000000000600052603260045260246000fdfea2646970667358221220015ddfe9fec272edc69298c35f0fad5e60ed81dfcae07c4eb63baea836b523c664736f6c63430008090033",
  "linkReferences": {},
  "deployedLinkReferences": {}
}