{
  "_format": "hh-sol-artifact-1",
  "contractName": "NFTMarketplace",
  "sourceName": "contracts/NFTMarketPlace.sol",
  "abi": [
    {
      "inputs": [],
      "stateMutability": "nonpayable",
      "type": "constructor"
    },
    {
      "anonymous": false,
      "inputs": [
        {
          "indexed": true,
          "internalType": "address",
          "name": "by",
          "type": "address"
        },
        {
          "indexed": false,
          "internalType": "address",
          "name": "NFTAddress",
          "type": "address"
        },
        {
          "indexed": true,
          "internalType": "uint256",
          "name": "NFTId",
          "type": "uint256"
        },
        {
          "indexed": true,
          "internalType": "uint256",
          "name": "listingId",
          "type": "uint256"
        },
        {
          "indexed": false,
          "internalType": "uint256",
          "name": "demandedAmount",
          "type": "uint256"
        },
        {
          "indexed": false,
          "internalType": "uint256",
          "name": "at",
          "type": "uint256"
        }
      ],
      "name": "Listed",
      "type": "event"
    },
    {
      "anonymous": false,
      "inputs": [
        {
          "indexed": true,
          "internalType": "address",
          "name": "by",
          "type": "address"
        },
        {
          "indexed": true,
          "internalType": "address",
          "name": "to",
          "type": "address"
        },
        {
          "indexed": true,
          "internalType": "uint256",
          "name": "NFTId",
          "type": "uint256"
        },
        {
          "indexed": false,
          "internalType": "uint256",
          "name": "listingId",
          "type": "uint256"
        },
        {
          "indexed": false,
          "internalType": "uint256",
          "name": "soldPrice",
          "type": "uint256"
        },
        {
          "indexed": false,
          "internalType": "uint256",
          "name": "at",
          "type": "uint256"
        }
      ],
      "name": "SoldViaListing",
      "type": "event"
    },
    {
      "anonymous": false,
      "inputs": [
        {
          "indexed": true,
          "internalType": "uint256",
          "name": "tokenId",
          "type": "uint256"
        }
      ],
      "name": "mintToken",
      "type": "event"
    },
    {
      "inputs": [
        {
          "internalType": "uint256",
          "name": "listingId",
          "type": "uint256"
        }
      ],
      "name": "_listingData",
      "outputs": [
        {
          "components": [
            {
              "internalType": "address",
              "name": "owner",
              "type": "address"
            },
            {
              "internalType": "address",
              "name": "NFTAddress",
              "type": "address"
            },
            {
              "internalType": "uint256",
              "name": "NFTId",
              "type": "uint256"
            },
            {
              "internalType": "uint256",
              "name": "demandedAmount",
              "type": "uint256"
            },
            {
              "internalType": "address",
              "name": "soldTo",
              "type": "address"
            }
          ],
          "internalType": "struct NFTMarketplace.Listing",
          "name": "",
          "type": "tuple"
        }
      ],
      "stateMutability": "view",
      "type": "function"
    },
    {
      "inputs": [],
      "name": "_listingTransactionFee",
      "outputs": [
        {
          "internalType": "uint256",
          "name": "",
          "type": "uint256"
        }
      ],
      "stateMutability": "view",
      "type": "function"
    },
    {
      "inputs": [],
      "name": "_totalListings",
      "outputs": [
        {
          "internalType": "uint256",
          "name": "",
          "type": "uint256"
        }
      ],
      "stateMutability": "view",
      "type": "function"
    },
    {
      "inputs": [
        {
          "internalType": "address",
          "name": "userAddress",
          "type": "address"
        }
      ],
      "name": "_usersListings",
      "outputs": [
        {
          "internalType": "uint256[]",
          "name": "",
          "type": "uint256[]"
        }
      ],
      "stateMutability": "view",
      "type": "function"
    },
    {
      "inputs": [
        {
          "internalType": "uint256",
          "name": "listingId",
          "type": "uint256"
        }
      ],
      "name": "buyListedNFT",
      "outputs": [],
      "stateMutability": "payable",
      "type": "function"
    },
    {
      "inputs": [
        {
          "internalType": "address",
          "name": "_contract",
          "type": "address"
        }
      ],
      "name": "checkRoyalties",
      "outputs": [
        {
          "internalType": "bool",
          "name": "",
          "type": "bool"
        }
      ],
      "stateMutability": "view",
      "type": "function"
    },
    {
      "inputs": [
        {
          "internalType": "address",
          "name": "_NFTAddress",
          "type": "address"
        },
        {
          "internalType": "uint256",
          "name": "_NFTId",
          "type": "uint256"
        },
        {
          "internalType": "uint256",
          "name": "_demandedAmount",
          "type": "uint256"
        }
      ],
      "name": "listNFT",
      "outputs": [],
      "stateMutability": "payable",
      "type": "function"
    },
    {
      "inputs": [
        {
          "internalType": "address",
          "name": "operator",
          "type": "address"
        },
        {
          "internalType": "address",
          "name": "from",
          "type": "address"
        },
        {
          "internalType": "uint256",
          "name": "tokenId",
          "type": "uint256"
        },
        {
          "internalType": "bytes",
          "name": "data",
          "type": "bytes"
        }
      ],
      "name": "onERC721Received",
      "outputs": [
        {
          "internalType": "bytes4",
          "name": "",
          "type": "bytes4"
        }
      ],
      "stateMutability": "pure",
      "type": "function"
    },
    {
      "inputs": [
        {
          "internalType": "uint256",
          "name": "_listingPrice",
          "type": "uint256"
        }
      ],
      "name": "updateListingFee",
      "outputs": [],
      "stateMutability": "nonpayable",
      "type": "function"
    }
  ],
  "bytecode": "0x608060405265e35fa931a00060015534801561001a57600080fd5b50600080546001600160a01b031916331790556111e78061003c6000396000f3fe6080604052600436106100965760003560e01c8063ad05f1b411610069578063e2acb8a01161004e578063e2acb8a0146101a2578063e605722e1461021a578063f79d91ae1461024757600080fd5b8063ad05f1b41461015f578063c0a515871461017257600080fd5b8063150b7a021461009b5780631ee826cd14610116578063595f68b514610135578063a3413e0a1461014a575b600080fd5b3480156100a757600080fd5b506100e06100b6366004610f77565b7f150b7a023d4804d13e8c85fb27262cb750cf6ba9f9dd3bb30d90f482ceeb4b1f95945050505050565b6040517fffffffff0000000000000000000000000000000000000000000000000000000090911681526020015b60405180910390f35b34801561012257600080fd5b506002545b60405190815260200161010d565b610148610143366004611016565b610267565b005b34801561015657600080fd5b50600154610127565b61014861016d36600461102f565b610794565b34801561017e57600080fd5b5061019261018d366004611064565b610c56565b604051901515815260200161010d565b3480156101ae57600080fd5b506101c26101bd366004611016565b610d1f565b60405161010d9190815173ffffffffffffffffffffffffffffffffffffffff90811682526020808401518216908301526040808401519083015260608084015190830152608092830151169181019190915260a00190565b34801561022657600080fd5b5061023a610235366004611064565b610e2d565b60405161010d9190611081565b34801561025357600080fd5b50610148610262366004611016565b610ea6565b8060008111801561027a57506002548111155b6102e5576040517f08c379a000000000000000000000000000000000000000000000000000000000815260206004820152601260248201527f496e76616c6964204c697374696e67204964000000000000000000000000000060448201526064015b60405180910390fd5b600082815260036020818152604092839020835160a081018552815473ffffffffffffffffffffffffffffffffffffffff908116825260018301548116938201939093526002820154948101949094529182015460608401526004909101541660808201819052156103d9576040517f08c379a000000000000000000000000000000000000000000000000000000000815260206004820152603260248201527f596f752043616e6e6f74204275792054686973204e465420426563617573652060448201527f497420497320416c726561647920536f6c64000000000000000000000000000060648201526084016102dc565b806060015134101561046d576040517f08c379a000000000000000000000000000000000000000000000000000000000815260206004820152602a60248201527f53656e642056616c7565204d6f7265204f7220457175616c20546f2044656d6160448201527f6e6465642056616c75650000000000000000000000000000000000000000000060648201526084016102dc565b602081015160408201516000918291828061048784610c56565b905080156105e45760608701516040517f2a55205a00000000000000000000000000000000000000000000000000000000815273ffffffffffffffffffffffffffffffffffffffff861691632a55205a916104ef918791600401918252602082015260400190565b604080518083038186803b15801561050657600080fd5b505afa15801561051a573d6000803e3d6000fd5b505050506040513d601f19601f8201168201806040525081019061053e91906110c5565b604051919750955073ffffffffffffffffffffffffffffffffffffffff87169086156108fc029087906000818181858888f19350505050158015610586573d6000803e3d6000fd5b508487606001516105979190611122565b875160405191935073ffffffffffffffffffffffffffffffffffffffff169083156108fc029084906000818181858888f193505050501580156105de573d6000803e3d6000fd5b50610632565b6060870151875160405191935073ffffffffffffffffffffffffffffffffffffffff169083156108fc029084906000818181858888f19350505050158015610630573d6000803e3d6000fd5b505b60008981526003602052604090819020600490810180547fffffffffffffffffffffffff000000000000000000000000000000000000000016339081179091558983015192517f42842e0e000000000000000000000000000000000000000000000000000000008152309281019290925260248201819052604482019290925273ffffffffffffffffffffffffffffffffffffffff8616906342842e0e90606401600060405180830381600087803b1580156106ed57600080fd5b505af1158015610701573d6000803e3d6000fd5b5050505087604001518173ffffffffffffffffffffffffffffffffffffffff16896000015173ffffffffffffffffffffffffffffffffffffffff167f2cd4b36abe053379eb9384c811c41e8e863e269b5444e1f88409821d4d15c3898d8742604051610780939291909283526020830191909152604082015260600190565b60405180910390a450505050505050505050565b60015434146107ff576040517f08c379a000000000000000000000000000000000000000000000000000000000815260206004820152601f60248201527f596f752073686f756c642070617920746865206c697374696e67206665652e0060448201526064016102dc565b6040517f081812fc000000000000000000000000000000000000000000000000000000008152600481018390523390309073ffffffffffffffffffffffffffffffffffffffff86169063081812fc9060240160206040518083038186803b15801561086957600080fd5b505afa15801561087d573d6000803e3d6000fd5b505050506040513d601f19601f820116820180604052508101906108a19190611139565b73ffffffffffffffffffffffffffffffffffffffff1614610944576040517f08c379a000000000000000000000000000000000000000000000000000000000815260206004820152602e60248201527f596f7520446964204e6f7420417070726f76656420596f7572204e465420546f60448201527f205468697320436f6e747261637400000000000000000000000000000000000060648201526084016102dc565b6040517f6352211e0000000000000000000000000000000000000000000000000000000081526004810184905273ffffffffffffffffffffffffffffffffffffffff8083169190861690636352211e9060240160206040518083038186803b1580156109af57600080fd5b505afa1580156109c3573d6000803e3d6000fd5b505050506040513d601f19601f820116820180604052508101906109e79190611139565b73ffffffffffffffffffffffffffffffffffffffff1614610a8a576040517f08c379a000000000000000000000000000000000000000000000000000000000815260206004820152602860248201527f4f6e6c79204f776e6572204f662054686973204e46542043616e204c6973742060448201527f54686973204e465400000000000000000000000000000000000000000000000060648201526084016102dc565b6040517f42842e0e00000000000000000000000000000000000000000000000000000000815273ffffffffffffffffffffffffffffffffffffffff8281166004830152306024830152604482018590528516906342842e0e90606401600060405180830381600087803b158015610b0057600080fd5b505af1158015610b14573d6000803e3d6000fd5b505060028054925090506000610b2983611156565b9091555050600280546040805160a08101825273ffffffffffffffffffffffffffffffffffffffff85811680835289821660208085018281528587018c815260608088018d8152600060808a018181528c825260038088528c83209b518c54908c167fffffffffffffffffffffffff0000000000000000000000000000000000000000918216178d5596516001808e018054928e16928a169290921790915595519e8c019e909e5591519c8a019c909c5551600498890180549190981693169290921790955583895294815285882080549485018155885296879020909201859055835191825294810187905242928101929092529192839287927faf479ebb9688734e395ae86aa7ce9354466240d8fbc4411946de41bd9bfaebf6910160405180910390a45050505050565b6040517f01ffc9a70000000000000000000000000000000000000000000000000000000081527f2a55205a000000000000000000000000000000000000000000000000000000006004820152600090819073ffffffffffffffffffffffffffffffffffffffff8416906301ffc9a79060240160206040518083038186803b158015610ce057600080fd5b505afa158015610cf4573d6000803e3d6000fd5b505050506040513d601f19601f82011682018060405250810190610d18919061118f565b9392505050565b6040805160a08101825260008082526020820181905291810182905260608101829052608081019190915281600081118015610d5d57506002548111155b610dc3576040517f08c379a000000000000000000000000000000000000000000000000000000000815260206004820152601260248201527f496e76616c6964204c697374696e67204964000000000000000000000000000060448201526064016102dc565b5050600090815260036020818152604092839020835160a081018552815473ffffffffffffffffffffffffffffffffffffffff9081168252600183015481169382019390935260028201549481019490945291820154606084015260049091015416608082015290565b73ffffffffffffffffffffffffffffffffffffffff8116600090815260046020908152604091829020805483518184028101840190945280845260609392830182828015610e9a57602002820191906000526020600020905b815481526020019060010190808311610e86575b50505050509050919050565b60005473ffffffffffffffffffffffffffffffffffffffff163314610f4d576040517f08c379a000000000000000000000000000000000000000000000000000000000815260206004820152603060248201527f4f6e6c79206d61726b6574706c616365206f776e65722063616e20757064617460448201527f65206c697374696e672070726963652e0000000000000000000000000000000060648201526084016102dc565b600155565b73ffffffffffffffffffffffffffffffffffffffff81168114610f7457600080fd5b50565b600080600080600060808688031215610f8f57600080fd5b8535610f9a81610f52565b94506020860135610faa81610f52565b935060408601359250606086013567ffffffffffffffff80821115610fce57600080fd5b818801915088601f830112610fe257600080fd5b813581811115610ff157600080fd5b89602082850101111561100357600080fd5b9699959850939650602001949392505050565b60006020828403121561102857600080fd5b5035919050565b60008060006060848603121561104457600080fd5b833561104f81610f52565b95602085013595506040909401359392505050565b60006020828403121561107657600080fd5b8135610d1881610f52565b6020808252825182820181905260009190848201906040850190845b818110156110b95783518352928401929184019160010161109d565b50909695505050505050565b600080604083850312156110d857600080fd5b82516110e381610f52565b6020939093015192949293505050565b7f4e487b7100000000000000000000000000000000000000000000000000000000600052601160045260246000fd5b600082821015611134576111346110f3565b500390565b60006020828403121561114b57600080fd5b8151610d1881610f52565b60007fffffffffffffffffffffffffffffffffffffffffffffffffffffffffffffffff821415611188576111886110f3565b5060010190565b6000602082840312156111a157600080fd5b81518015158114610d1857600080fdfea2646970667358221220f06f5f2a0c60b7ee7c7e3c8cae581dda74c87c558c6f921ee674c7ebcdfea5b064736f6c63430008090033",
  "linkReferences": {},
  "deployedLinkReferences": {}
}